S01B0000566F646B614D616368696E6528302E312E30292E7372656321
S11300000C942A000C9447000C9447000C9447006D
S11300100C9449000C9447000C9447000C9447003E
S11300200C9447000C94EA020C9447000C9447008B
S11300300C9447000C9447000C9447000C94470020
S11300400C9447000C9447000C9447000C94470010
S11300500C94470011241FBECFE5D4E0DEBFCDBF12
S113006010E0A0E6B0E0EEE4F8E002C005900D92E6
S1130070AC36B107D9F720E0ACE6B0E001C01D9280
S1130080A638B207E1F70E942F030C9425040C94C0
S113009000001F920F920FB60F921124CF92DF929D
S11300A0EF92FF920F931F932F933F934F935F937E
S11300B06F937F938F939F93AF93BF93CF93DF936C
S11300C0EF93FF93E7E7F0E082E090E041E020B3B4
S11300D030E0082E02C0359527950A94E2F720FDFA
S11300E002C0108210C020B330E0082E02C0359543
S11300F027950A94E2F720FF06C04083DC01A95843
S1130100BF4F12961C920196319686309105F9F6EE
S1130110A3E7B0E0EFE6F0E06BE770E00F2EF7E75F
S1130120CF2EF0E0DF2EF02D81E090E020E030E0F3
S113013041E050E0FF24F394E60119916E0111238C
S113014061F0F082EBB28A01082E02C0000F111F89
S11301500A94E2F70E290BBB0CC01082EBB28A01A1
S1130160082E02C0000F111F0A94E2F700950E2119
S11301700BBBEB011991BE01112361F0FC92EBB2B0
S11301808A01022E02C0000F111F0A94E2F70E2901
S11301900BBB0CC01C92EBB28A01022E02C0000FF2
S11301A0111F0A94E2F700950E210BBB11963196AC
S11301B02E5F3F4F02968930910509F0BDCF8091A3
S11301C06E0081110DC0979A9698E0916C00F0E052
S11301D0E05AFF4F808185BB81E080936E000DC0A3
S11301E0813059F49798969AE0916D00F0E0E05AC6
S11301F0FF4F808185BB10926E0080918500811134
S113020069C180918400882309F469C163C1109293
S1130210850010928500C5C180B390E080959095CB
S113022083709927019731F481E0809385001092BF
S11302308400B7C180B390E080959095837099272E
S1130240029709F0AEC11092850081E0809384008A
S1130250A8C180918400882309F450C14AC1109236
S11302608500109284009DC180B390E080959095A4
S113027083709927019731F481E08093850010926F
S113028084008FC180B390E0809590958370992706
S1130290039709F086C182E0809385001092840060
S11302A080C180918400882309F432C13BC110923B
S11302B085001092840075C180B390E0809590957C
S11302C083709927019731F481E08093850010921F
S11302D0840067C180B390E08095909583709927DE
S11302E0039731F482E0809385001092840059C111
S11302F080B390E08095909583709927029709F0D8
S113030050C183E080938500109284004AC180919B
S11303108400882309F40BC114C182E08093850012
S1130320109284003EC180B390E0809590958370D4
S11303309927029731F483E080938500109284001A
S113034030C180B390E08095909583709927892B74
S113035009F027C1109285001092840080916D00ED
S1130360893089F480916C00893029F480936C0081
S113037080936D0016C1ECE6F0E080818F5F80838E
S113038010926D000EC1EDE6F0E080818F5F8083F6
S113039008C180918400813009F0E3C0D8C0109274
S11303A0850081E080938400FCC080B390E0809558
S11303B0909583709927892B29F4109285001092C7
S11303C08400EFC080B390E0809590958370992766
S11303D0039709F0E6C01092850082E080938400C0
S11303E0E0C080918400823009F0CBC0C0C010927C
S11303F0850082E080938400D4C080B390E080952F
S1130400909583709927029731F41092850081E0CA
S113041080938400C6C080B390E0809590958370EB
S11304209927892B29F41092850010928400B9C071
S113043080B390E08095909583709927019709F097
S1130440B0C01092850083E080938400AAC080919C
S11304508400833009F0A5C09AC01092850083E01F
S1130460809384009EC080B390E0809590958370C3
S11304709927039731F41092850082E080938400D9
S113048090C080B390E08095909583709927892BD4
S113049009F087C0109285001092840080916D004D
S11304A0811112C080916C00813029F480936C001A
S11304B010926D0076C0ECE6F0E08081815080837C
S11304C089E080936D006DC0EDE6F0E0808181509D
S11304D0808367C080918500813059F4BACE80B39F
S11304E090E08095909583709927892B09F094CE9C
S11304F08ECE809185008230A9F4D3CE80B390E073
S11305008095909583709927892B09F0ADCEA7CE5D
S113051080B390E08095909583709927892B09F09A
S1130520CBCEC5CE80918500833059F4F0CE80B314
S113053090E08095909583709927039709F0F3CE06
S1130540ECCE80918500882309F423CF0AC080B3C0
S113055090E08095909583709927029709F025CFB4
S11305601ECF80918500882309F43BCF0AC080B355
S113057090E08095909583709927039709F03DCF7B
S113058036CF80918500882309F461CF0AC080B3F7
S113059090E08095909583709927019709F063CF37
S11305A05CCFFF91EF91DF91CF91BF91AF919F917C
S11305B08F917F916F915F914F913F912F911F91F7
S11305C00F91FF90EF90DF90CF900F900FBE0F90A0
S11305D01F9018951F920F920FB60F9211248F93AC
S11305E09F93809183008F5F809383008091830029
S11305F08E3421F4C39A1092830007C09091830033
S113060080916A00981301C0C3989F918F910F90B5
S11306100FBE0F901F9018958AB38FEF8ABB87B3D4
S11306208A6087BB84B38F6784BB81B3806C81BBD2
S1130630089589B7816089BF83B7826083BF89B712
S1130640806489BF85B5836085BD2FEF80E792E024
S1130650215080409040E1F700C000000895CF93FE
S1130660DF9300D000D000D0CDB7DEB70E941903CD
S113067081E080936E0082E080936C0085E080933B
S11306806D000E940C0378941092820086E080939F
S11306906A002FEF81E19AE7215080409040E1F712
S11306A000C000000F2EF7E7CF2EF0E0DF2EF02D74
S11306B00F2EFBE7EF2EF0E0FF2EF02D5524539480
S11306C00F2EFCE6AF2EF0E0BF2EF02D0F2EFDE630
S11306D08F2EF0E09F2EF02D0F2EF1E86F2EF0E01C
S11306E07F2EF02D6FE770E00F2EFEE14F2EF02DE0
S11306F040E850E0312C212CB299FECFAFEFB0E7A7
S1130700E2E0A150B040E040E1F700C00000B2993F
S1130710F3CFF601152DFC82EB82FA83E983808105
S1130720811188C010938200123099F028F41123AB
S113073041F0113051F018C0133079F0143089F0C1
S113074013C026E020936A000FC08AE080936A00F9
S11307500BC098E090936A0007C0A5E0A0936A00DC
S113076003C0B3E0B0936A002FEF8EE994E2215006
S113077080409040E1F700C00000A981BA818C91CB
S1130780813009F457C0D5018C91D4019C91880F14
S1130790282F220F220F820F890FD3011C92C19A96
S11307A0DB015C92489E900111242115310549F129
S11307B0A981BA818C91813081F406C0ED81FE81DA
S11307C00081013089F4FD01C198DB011C92DA013A
S11307D05C92AB81BC811C9214C0832D922DA981A3
S11307E0BA81BE83AD83DF01FA011082EFECF7E03A
S11307F03197F1F700C00000019682179307F1F6D4
S1130800FD01C198DB011C92DA018C91813021F445
S1130810AB81BC811C9203C0AB81BC815C92D301CF
S11308205C92BFEF28E08DE3B15020408040E1F7B7
S113083000C000001F5F3196AB81BC811196BC8360
S1110840AB83153009F069CF57CFF894FFCF82
S10F084E3F0C5B5E6C76771C7F7E06001E
S9030000FC
